:400000000080002011000000850D0000850D000080B500AF00F0C0FE80B500AF154B12221A60182001F090FA134B144A1A60144BC02212011A60134B134A1A60134B80227B
:4000400092001A600F4B124A1A60124B822212061A60114B00221A60104B41221A60104B40221A600F4B00221A60024B11221A60BD4680BD3000104004010B4006000080C4
:40008000040301400000014041FF00800003014040FF008008010B4000010B4028010140140101400C020B4080B582B000AF72B6FB1D00221A7023E0FB1D1A78131C5B0002
:4000C0009B185B00524A9B183B603B681A78597809020A43997809040A43DB781B061343191C3B681A795B791B0213439BB2081C191C00F0D5FEFB1D1A78FB1D01321A70DB
:40010000FB1D1B78012BD7D9424A434B101C191C00F0D6FE414B60221A60414BEE2212021A60404B404A1A60404BC022D2021A603F4B992212041A603E4B992212041A6054
:400140003D4BA222D2031A603C4B992212041A603B4B992212041A603A4B992212041A60394A394B1B78DBB202210B43DBB21370364A364B1B78DBB23C218B43DBB21421BB
:400180000B43DBB21370304A2F4B1B78DBB216210B43DBB213702E4B80221A602D4B8022D2031A602C4B06221A602C4BD82252001A602B4B06221A602A4BBE221A602A4B88
:4001C000FF221A60294BD82212011A60284B1C221A60284BDB22D2011A60274B02221A60264B274A1A60274B02221A60264B10221A60264BC022D2011A60254B10221A602C
:40020000FFF70AFF00F09CFEBD4602B080BDC046CC3F0000D83F0000F43F0000000102400003024000060240FFFF00000008024000500F4010500F4018500F4020500F400C
:4002400040500F4070500F4000700F4001700F4000000440080004400001044008010440180104400002044018020440080304400005044008050440000604400806044069
:40028000710200001806044000080440080804401808044010B5064C2378002B07D1054B002B02D0044800E000BF0123237010BDA001002000000000883F000008B5084B5C
:4002C000002B03D00748084900E000BF07480368002B00D108BD064B002BFBD09847F9E700000000883F0000A4010020C80000200000000080B500AF00F0C0FA00F0AEFAA6
:4003000000F058FA00F002F900F006F800F0C4FA00F0ACFAF8E7C04680B582B000AF724B1B88042B00D9D7E09A00704BD3181B689F466F4B00221A606E4B00221A606E4B38
:4003400000221A60684B01221A80C9E06B4B7B60BB1C03221A80BB1C1B88181C00F0DCF8614B02221A80BBE000F042F9031E00D183E0012000F060FE002000F037FE0120D5
:4003800000F080FE5A4B1B685A1C594B1A605B4B1B78022B2AD1594B5B78142B07D8574B9B781A1C554B5B7854339A4208DDBB1C01221A80514B7B60504BFF221A7011E035
:4003C0004E4B5B789B001A1C4D4BD3187B604B4B5B78042B02D14B4B01221A70474B9A78BB1C1A80404B04221A8034E0434B1B78012B2BD1414B5B78542B08D9BB1C01223E
:400400001A803E4B7B603D4BFF221A701AE03B4B5B789B001A1C3C4BD3187B60374B9B781A1C364B5B7854339A4207DD334B5B789AB2BB1C54218A1A1A8003E02F4B9A781E
:40044000BB1C1A80284B03221A8004E02B4B7B60BB1C03221A80244B1B88032B05D1BB1C1B88181C00F058F807E07A68BB1C1B88101C191C00F07CF832E031E000F028F9CE
:40048000031E11D0012000F0D7FD012000F0AEFD002000F0F7FD174B1B685A1C154B1A60114B01221A801BE01AE000F075F9031E11D0114B1B685A1C0F4B1A60002000F0B9
:4004C000BBFD012000F092FD012000F0DBFD064B01221A8004E003E0034B00221A80C046BD4602B080BDC046180200208C3F0000D8020020D4020020D00200207002002065
:40050000D00000207C0200201C02002080B500AF00F0F6FDBD4680BD80B582B000AF021CBB1D1A80BB1D1B88272B17D8BB1D1A880D4B1A60BB1D1B8802331A1C0B4B181CCA
:40054000552103F018FDBB1D1B8802331A1C074B181C111C00F040FE012300E00123181CBD4602B080BDC04678020020BC01002080B582B000AF78600A1CBB1C1A80BB1C0F
:400580001B88272B26D8164B02221A70BB1C1B8814497A68081C111C1A1C03F0E3FCBB1C1B8801330E4A0421D1540F4B1B78002B05D00E4B00221A610B4B00221A70BB1C1B
:4005C0001B8802331A1C064B181C111C00F004FE012300E00023181CBD4602B080BDC046BC010020BD0100207C020020D000002080B582B000AF00F0B3FD031E01D10023E1
:4006000058E02E4B1B78002B15D000F099FD031E022B08D1294B00221A70294B00221A70284B00221A60254B1B78002B03D000F097FD031EE9D100F093FD031E01D1002374
:4006400038E000F07DFD021CFB1D1A701C4B1B78002B13D0FB1D1B78042B0AD11A4B1B4A1188198092789A70144B01221A70012320E0124B01221A7000231BE0114B1B6834
:40068000591C104A1160114AF91D0978D1540D4B1B68032B02D10A4B01221A70074B1B7801225340DBB2002B03D000F059FD031EC7D10023181CBD4602B080BDCF000020A8
:4006C000730200207402002070020020E801002080B582B000AF00F043FD031E01D100234CE0284B1B78002B15D000F029FD031E022B08D1234B00221A70234B00221A7025
:40070000224B00221A601F4B1B78002B03D000F027FD031EE9D100F023FD031E01D100232CE000F00DFD021CFB1D1A70FB1D1B78042B07D1164B174A1188198092789A7020
:4007400001231BE0114B1B68591C104A1160114AF91D0978D1540D4B1B68032B02D10A4B01221A70074B1B7801225340DBB2002B03D000F0F5FC031ED3D10023181CBD4620
:4007800002B080BDCF000020730200207402002070020020E801002080B500AF00F036FD031E03D100F0ECFC012300E00023181CBD4680BD80B500AFBD4680BD80B582B09B
:4007C00000AF021C3960BB1D1A80BB1D1B880E4AD2781206120FD2B2934212DABB1D1B88094A0C339B00D3183A685A60064B1B69BA1D12885200012191400A1C1A43024B3C
:400800001A61BD4602B080BDD000002080B582B000AF021C3960BB1D1A80BB1D1B880E4AD2781206120FD2B2934212DABB1D1B88094A0C339B00D3183A685A60064B1B69BD
:40084000BA1D12885200012191400A1C1A43024B1A61BD4602B080BDD000002080B500AF00F062F800F034FABD4680BD80B500AF00F064F800F036FABD4680BD80B500AF95
:40088000012000F0D9FB012000F0B0FB012000F0F9FBBD4680BDC04680B500AFBD4680BD80B582B000AF1A4B1B687B607B680122134027D0174B1B683B603B680122134066
:4008C0000CD0002001F0CEFA031C1A1C124B1A80124B1B6801221A43104B1A603B68042213400CD0022001F0BDFA031C1A1C0A4B9A800A4B1B6804221A43084B1A60084BC1
:400900003A681A60074B7A681A60BD4602B080BD1C023A403C023A40E40200209802002030023A4010023A4080B500AF024B00221A60BD4680BDC046E0020020F0B583B0C6
:4009400000AFD14B1B680A2B00D996E19A00CF4BD3181B689F4601F073FB01F0CFFB01F02BF9CB4B181C01F0ADFA62B6C64B01221A6086E1002001F075FB01F057FAC24B8F
:4009800002221A607DE1C34B1B680422134015D001F05AFABF4B1B68042293431A1CBD4B1A60BD4B802212011A60FF2001F05AFB01F03CFAB44B03221A6062E161E1B54BE0
:4009C0001B680422134057D001F03EFAB14B1B68042293431A1CAF4B1A60B04B9B889BB21AB2AF4B1A60AE4B1A68AB4B1B68D21AAB4B1A60AA4B1B68181C01F045FE031C8C
:400A0000181C03F029F8031C0C1C181C211CA54AA54B02F0A5F9031C0C1C181C211CA34AA34B01F079FE031C0C1C181C211C03F067F8021C9F4B1A60994B1B68181C01F034
:400A400023FE031C181C03F007F8031C0C1C181C211C944A944B02F083F9031C0C1C181C211C03F04DF8031C0120191CFFF7CEFE854B04221A6004E103E1002001F0F2FAD0
:400A800001F0D4F9804B05221A60FAE0824B00221A60FF2001F0E6FA01F0C8F97A4B06221A60EEE0844B01221A60834B1A687A4B1B68D21A804B1A607F4B1B68181C01F04B
:400AC000E3FD031C181C02F0C7FF031C0C1C181C211C744A744B02F043F9031C0C1C181C211C03F00DF8031C0220191CFFF78EFE002001F0B7FA01F099F9634B07221A606A
:400B0000BFE0644B1B680122134010D001F09CF9604B1B68012293431A1C5E4B1A605E4B802212011A60584B08221A60A9E0A8E0FF2001F097FA01F079F9534B09221A6011
:400B40009FE0544B1B680122134038D0514B1B68012293431A1C4F4B1A6001F075F94F4B1B889BB21AB2554B1A60544B1A684A4B1B68D21A514B1A60504B1B68181C01F0A7
:400B800083FD031C181C02F067FF031C0C1C181C211C444A444B02F0E3F8031C0C1C181C211C02F0ADFF031C0320191CFFF72EFE354B0A221A60002001F054FA61E060E073
:400BC0003E4B1A683C4B1B68D31A181C01F05CFD031C181C02F040FF031C0C1C181C211C304A314B02F0BCF8031C0C1C1D1C261C304B1B68181C02F02FFF031C0C1C281CFE
:400C0000311C1A1C231C01F087FD031C0C1C181C211C01F09BFB031C181C02F0EBFE031C0C1C181C211C0022254B02F099F8031C0C1C181C211C01F089FB021C214B1A6012
:400C4000204B1B68181C00F0F1FE021C1E4B1A601D4B1B68181C01F0CFFC031C181C1B4901F092FB031C7B607B680020191CFFF7CDFD054B01221A6003E0034B00221A60B6
:400C8000C046BD4603B0F0BDE0020020A03F0000A10800009802002090020020E4020020DC020020FCA9F1D24D62403FB81E85EB51285940940200208002002088020020E1
:400CC00000408F40840200208C0200200000C84280B500AF024B00221A60BD4680BDC046EC02002080B500AF234B1B68012B0AD002D3022B2AD039E01F4B01221A601F4B05
:400D000000221A6036E01D4B1B685A1C1B4B1A6001F006FA031E04D0184B1B68184A934213D9164B00221A60012000F085F9012000F05CF9002000F0A5F904200121FFF7F5
:400D40003DFD0D4B02221A6014E013E001F0E8F9031E0BD0012000F06FF9012000F046F9012000F08FF9044B01221A60024B00221A60C046BD4680BDEC020020F0020020F1
:400D8000A086010080B500AF03F0C0F8031C1B680C2B00D1FEE7FEE780B586B000AF224B7B61224B3B61204B7B6135E03B691B68FB603B695B68BB603B699B683B600023D8
:400DC0007B600CE0FB681A68BB681A60BB680433BB60FB680433FB607B6804337B607A683B689A42EED13B69DB683B6000237B6008E0BB6800221A60BB680433BB607B68AC
:400E000004337B607A683B689A42F2D13B6910333B617B69013B7B617B69002BC6D103F07BF8FFF767FAFEE701000000C841000080B582B000AF154B144A126801218A436E
:400E40001A6000237B600FE07B68032B04D8104B7A689200D35800E00E4B0F4A796889008B507B6801337B607B682F2BECD9FFF71BF90A4B00221A60044B044A1268012125
:400E80000A431A60BD4602B080BDC0460000104000000000850D000000000020C000002080B582B000AF786039607A683B68101C00211A1C03F05FF8BD4602B080BDC046C0
:400EC00080B586B000AF7860396000233B6100237B612FE07B699B007A68D3181B68BB600F23FB18BA681A70BB68FF229343BB6018E03B695B003A68D3181B781A1CBB681A
:400F0000D318191C3B695B003A68D3185B780B703B6901333B610F23FB181A780F23FB18013A1A700F23FB181B78002BE1D17B6901337B617B69062BCCD9BD4606B080BD09
:400F400080B500AF0F4B802212061A600E4B03221A600E4B0E4A1A600E4B03221A600E4B802212061A600D4B0D4A1A600D4BFF221A600D4B00221A60012000F017F8BD4624
:400F800080BDC046000030403000304080003040014020003000314000003A4000033A4055AA000040033A40000E3F4080B584B000AF021CFB1D1A700B4B1B68FB60FB1D88
:400FC0001B78002B05D0FB68802212061343FB6003E0FB685B005B08FB60034BFA681A60BD4604B080BDC04680033A4080B584B000AF021CFB1D1A700E4B1B68DAB20F239E
:40100000FB1808218A431A70FB1D1B78DB00DBB208221340D9B20F23FB180F22BA1812780A431A70034B0F22BA1812781A60BD4604B080BD0005044080B584B000AF021C91
:40104000FB1D1A700E4B1B68DAB20F23FB1804218A431A70FB1D1B789B00DBB204221340D9B20F23FB180F22BA1812780A431A70034B0F22BA1812781A60BD4604B080BDDC
:401080000005044080B584B000AF021CFB1D1A700E4B1B68DAB20F23FB1810218A431A70FB1D1B781B01DBB210221340D9B20F23FB180F22BA1812780A431A70034B0F224E
:4010C000BA1812781A60BD4604B080BD0005044080B500AF00F0AAF8BD4680BD80B500AF064B064A1268802109060A431A6000F019F800F01FF8BD4680BDC04600002740FC
:4011000080B500AF064B1B78002B04D1FFF7E0FF034B01221A70FFF7E1FFBD4680BDC0469C02002080B500AF0C2000F0BDFBBD4680BDC04680B500AF00F0D2F8BD4680BD61
:4011400080B582B000AF00237B60044B1B687B607B68181CBD4602B080BDC0464003274080B582B000AF054B1B681F2213407B607B68181CBD4602B080BDC046080327401C
:4011800080B500AF074B074A1268802149020A431A60044B034A126803490A401A60BD4680BDC04604032740FFFFFEFF80B582B000AF7860C046064B1B681F221340082B17
:4011C000F9D0044B7A681A60BD4602B080BDC046080227404002274080B584B000AF786039600023FB6009E07A68FB68D3181B78181CFFF7DBFFFB680133FB60FA683B68BB
:401200009A42F1D3BD4604B080BDC04680B582B000AF054B1B681F2213407B607B68181CBD4602B080BDC0460802274080B500AF1B4B1C4A1A601C4B01221A601B4B1C4A42
:401240001A601C4B07221A601B4B194A1A601B4B07221A600C2000F03BFB0C20032100F0CFFA174B0C20191C00F0A4FA154B00221A60154B00221A60144B00221A60144BA0
:4012800000221A60134B00221A60134B00221A60114B1B689AB2114B1A80BD4680BDC04600002740070000012000274000032740070100800403274000022740040227400B
:4012C000F9120000880E2740C80E2740480F2740080F2740C80F2740880F27409E02002080B500AF024B034A12881A60BD4680BD880F27409E02002080B500AF044B1B682B
:40130000002B02D0024B1B689847BD4680BDC046A002002090B587B000AF0023BB6000F02DFB031E00D185E0FC1D00F012FF031C2370424B414A126801210A431A600323B4
:401340003B6100237B6112E03D4B1B68DBB21A1C3F2313403B497A698A181278934203D17B6903333B6105E07B6901337B617B692D2BE9D9344B1B681F22134007D1324BA9
:40138000314A12681F218A430C210A431A602F4B1B682F4A1340FB603B692E4A53438022D20194466344DB0B013B5B055B0DFA681343FB60FB68A02252031343FB603B699F
:4013C000192B05D8FB68FF2292051343FB6016E03B69214A944663441B78DBB2191C3B691A3B1E4AD35CCB18BB60BB68FF2B00D9FF23BB60BB689B05FA681343FB60134B00
:40140000FA681A60164B1B683B60302000F0A8FE144B144A12688021C9050A431A60142000F074FA0E4B3A681A60FB1D1B78181C00F093FEBD4607B090BDC04650000C40EE
:401440002CFF0B401440000034FF0B400800224000F800C040420F004DF3FF0F44400000300010400000224080B500AF034B034A126803490A401A60BD4680BD0000224012
:40148000FFFFFFBF80B500AF054B1A688023DB05134001D0012300E00023181CBD4680BD0000224080B500AF0E4B0E4A126801218A431A600C4B1B681F2293431A1C0B4B21
:4014C0001A60094B084A12681F218A4308210A431A60074B064A126802210A431A60BD4680BDC04650000C4034FF0B40BC02002024002C4080B500AF084B084A126802215B
:401500008A431A60064A064B1B681F218B43191C044B1B680B431360BD4680BD24002C4034FF0B40BC02002080B500AF054B1B680222134001D0012300E00023181CBD46E1
:4015400080BDC04624002C4090B587B000AF786000233B610023FB600B23FC1800F0F9FD031C2370FFF78EFF031E03D001233B61FFF77AFFFFF7D8FF031E09D07B68182BEB
:4015800002D07B68302B03D10123FB60FFF7B2FF7B68022B00D8CCE07B68302B00D9C8E06F4B1B78DBB21A1E7B689A420AD36D4A1723FB1812781A706B4A1623FB1812787D
:4015C0001A703FE0694B1B78DBB21A1E7B689A420AD3674A1723FB1812781A70654A1623FB1812781A702DE0634B1B78DBB21A1E7B689A420AD3614A1723FB1812781A70BE
:401600005F4A1623FB1812781A701BE05D4B1B78DBB21A1E7B689A420AD35B4A1723FB1812781A70594A1623FB1812781A7009E0574A1723FB1812781A70564A1623FB182A
:4016400012781A707B68DA1E0A23FB1852498A5C1A700A23FB181B782F2B0DD97B682A2B0AD94E4B19221A60052000F069FD1523FB1819221A7007E0484B1B68DAB2152368
:40168000FB183F210A401A700A23FA181523FB1812781B789A4208D2404B7A68033A3E498A5C1A60052000F04BFDFB68012B08D17B68302B05D13A4A1423FB1812781A703A
:4016C00012E0FB68012B08D17B68182B05D1354A1423FB1812781A7006E07B682D4A9A181423FB1812781A702F4B1422BA1812781A602E4B1722BA1812781A602C4B1622AA
:40170000BA1812781A60052000F024F90A23FA181523FB1812781B789A4209D91F4B7A68033A1D498A5C1A60052000F009FD03E002E0002000F0E0F83B69012B01D1FFF78D
:40174000E9FDFB68012B01D1FFF7ACFE0B23FB181B78181C00F001FDBD4607B090BDC04640F3FF0F41F3FF0F42F3FF0F43F3FF0F44F3FF0F45F3FF0F46F3FF0F47F3FF0F5B
:4017800048F3FF0F49F3FF0F4AF3FF0F4BF3FF0F4CF3FF0F4DF3FF0F144000002CFF0B403FF3FF0F3EF3FF0F28FF0B401CFF0B4020FF0B4080B584B000AF021C3960FB1DF2
:4017C0001A7080239B05FB60FB1D1B781F2B02D9002000F091F8FB1D1B7810339B00FA68D3181B68BB60FB1D1B7810339B00FA68D3183A681A60BB68181CBD4604B080BDA7
:4018000090B587B000AF021CFB1D1A70BB1D0A1C1A70BB1D1B78032B02D9002000F06CF8FB1D1B781F2B02D9002000F065F8FB1D1B7803221340DB0006337B611323FC18B3
:4018400000F087FC031C2370FB1D1B789B08DBB29B00144A944663441B68FB607B6903229A40131CDA43FB681340FB60BB1D1A787B699A40131CFA681343FB60FB1D1B78BB
:401880009B08DBB29B00074A94466344FA681A601323FB181B78181C00F05FFCBD4607B090BDC04600E400E080B582B000AF021CFB1D1A70054BFA1D12781F210A40012110
:4018C00091400A1C1A60BD4602B080BD00E100E080B582B000AF021CFB1D1A70054BFA1D12781F210A40012191400A1C1A60BD4602B080BD80E100E080B582B000AF021C79
:40190000FB1D1A7001BEBD4602B080BD80B582B000AF786009E00C4B1B68181C00F010FC7B680A4A944663447B607A6880231B029A42F0D8064B1B687A685343181C00F02A
:40194000FFFBBD4602B080BD300100200080FFFF2801002080B582B000AF021CBB1D1A80BB1D1B88044A12785343181C00F0E8FBBD4602B080BDC0462C01002080B500AFA4
:40198000044B1B68002B01DA012300E00023181CBD4680BD00002240F0B58BB000AFF861B961002300243B627C62FB69BB60DB17FB60BB693B6000237B60B868F9683A68E2
:4019C0007B6800F099FC031C0C1C3B627C627B6A002B1CDA396A7A6A00244B4294413B627C623B6A7C6A2202190E3961396911433961230E7B613B693B62DB177B62396A6F
:401A00007A6A00244B4294413B627C6209E03B6A7C6A22021D0E1543260E2B1C3B62DB177B623B6A181CBD460BB0F0BDF0B597B000AFF861202318229446BC4463445B4AE4
:401A400043CA43C343CA43C3082318229446BC446344574A43CA43C343CA43C300233B65FB69544A934250D9FB695B01FB613F2318229446BC44634405221A7022E03F2382
:401A800018229446BC4463441A78202318218C46BC4463449200D2583B6DD218FB69101C191CFFF779FF031C3B653F2318229446BC4463441A783F2318218C46BC446344E1
:401AC000013A1A703F2318229446BC4463441B78002BD4D1202318229446BC4463441A683B6DD318BB60DB17FB60B868F9680B1C5B05021CD20A3A613A691A433A610B1CC7
:401B0000DB0A7B613B693B654BE0FB695B01FB613F2318229446BC44634405221A7022E03F2318229446BC4463441A78082318218C46BC4463449200D2583B6DD218FB694B
:401B4000101C191CFFF728FF031C3B653F2318229446BC4463441A783F2318218C46BC446344013A1A703F2318229446BC4463441B78002BD4D1082318229446BC4463443A
:401B80001A683B6DD3183B60DB177B60386879680B1C9B06021C94091C430B1C9D09231C3B653B6D181CBD4617B0F0BD5C40000074400000A086010080B500AF064B1B7807
:401BC000002B04D100F00AF8034B01221A7000F011F9BD4680BDC046C002002080B584B000AF11200321FFF70BFE664B1120191CFFF7E0FD644B0F221A60644B1B68002BC9
:401C000001DA634900E06349634B634A12680A431A60624B624A1A60624B634A1A60634B8022D2051A60624B624A1A60624B614A1A60624B614A1268802149020A431A6083
:401C40005F4B5F4A1268802149020A431A605D4B00221A605C4B00221A605C4B01221A605B4B1B687B607B685A4A13407B607B688022920513437B607B68012293437B605C
:401C8000534B7A681A600023FB6075E0524BFA689200D258DC239B0113407B604F4AFB68D3181B781A1C7B6813437B60FB689B004B4A944663447A681A60474BFA68920019
:401CC000D3580122134009D03E4B3E4A1268F96801208840011C89B20A431A603E4BFA689200D3580222134009D0374B364A1268F96801208840011C89B20A431A60364B18
:401D0000FA689200D25880239B00134003D08023DB00BB6002E080235B01BB602E4BFA689200D25880235B00134005D12D4BFA6852000021D15209E0BB68002B00DA013319
:401D40005B1099B2274BFA685200D152BB68264A53438022D20094466344002B02DA234A94466344DB129BB219B2214BFA689200D150FB680133FB60FB68032B86D9BD46E6
:401D800004B080BDA91E000020003A4080033A40C0201013C020001300003A4004003A40C500008018003A400000FF0F1C003A4010003A400400040014003A4000033A40CE
:401DC00040033A4028023A4038023A4018023A4030003A40FFFFFFDF8C4000009C40000080003A40F402002010270000FF070000FC02002080B500AF0A4B1B68002B0EDBD1
:401E0000C046094B1B68002BFBDB064B054A1268802109060A431A600A20FFF79BFDBD4680BDC04600003A4008023A4080B500AF044B044A1268802149020A431A60BD4686
:401E400080BDC04604003A4080B500AF034B034A126803490A401A60BD4680BD04003A40FFFFFEFF80B584B000AF78607B68032B02D90020FFF740FD7B68032B09D87B68DB
:401E80009B00084A944663441B681B041B0CFB6001E00023FB60FB689BB21BB2181CBD4604B080BD80013A4080B582B000AF044B1B687B60024B7A681A60BD4602B080BD33
:401EC00010023A4080B582B000AF786000F04CF87B68181C00F008F8032000F013F800F039F8BD4602B080BD80B582B000AF7860034B84217A685A50BD4602B080BDC04697
:401F00000000002090B585B000AF021CFB1D1A700E23FB600B23FC1800F01BF9031C23700A4B0A4A12680A491140FA1D1078FA689040021C0A431A600B23FB181B78181C8F
:401F400000F00BF9BD4605B090BDC04610E400E0FF3FFFFF80B500AF024B802292021A60BD4680BD00E100E080B500AF024B802292021A60BD4680BD80E100E090B583B096
:401F800000AFFC1D00F0E5F8031C2370164B1B680F2293433B60154B1B78DBB21A1C0F2313403A6813433B600F4B3A681A60104B0F4A12681A600F4B0E4A12680E490A409B
:401FC0001A600B4B0A4A12688021C9000A431A60084B084A12681A60FB1D1B78181C00F0BCF8BD4603B090BD00FF294060F2FF0F0800294004002940FFFFFEFF90B583B0DA
:4020000000AFFC1D00F0A5F8031C23700A4B0A4A1268C02189000A431A60084B074A1268802109060A431A60FB1D1B78181C00F094F8BD4603B090BD080029400400294074
:4020400080B500AF064B1B68002B04D1FFF796FF034B01221A60FFF7D1FFBD4680BDC046C402002090B585B000AF78600F23FC1800F06FF8031C2370094B1B68FF22934322
:402080001A1C7B681343BB60054BBA681A600F23FB181B78181C00F060F8BD4605B090BD0800294080B500AF074B02221A60074B802212061A60064B04221A60054B032220
:4020C0001A60BD4680BDC046CC0200200000304004003040080F304080B500AF054A054B1968054B1B680B43802109010B431360BD4680BD04003040CC02002080B500AFB0
:40210000064B1B78002B04D1FFF7CCFF034B01221A70FFF7E1FFBD4680BDC046C802002080B500AF044B1B6880221340DB09DBB2181CBD4680BDC04604000440000000001B
:402140000230800803D00138FDD1C046C046C0467047EFF3108072B6704780F31088704790B585B000AF78600F23FC18FFF7F1FF031C23707B68102B06D8154B144A1268DC
:4021800003218A431A601AE07B68202B08D8104B0F4A126803218A4301210A431A600EE07B68302B08D80A4B094A126803218A4302210A431A6002E00020FFF79DFB0F23D9
:4021C000FB181B78181CFFF7C8FFBD4605B090BD30001040002243088B4274D303098B425FD3030A8B4244D3030B8B4228D3030C8B420DD3FF22090212BA030C8B4202D30B
:402200001212090265D0030B8B4219D300E0090AC30B8B4201D3CB03C01A5241830B8B4201D38B03C01A5241430B8B4201D34B03C01A5241030B8B4201D30B03C01A5241D8
:40224000C30A8B4201D3CB02C01A5241830A8B4201D38B02C01A5241430A8B4201D34B02C01A5241030A8B4201D30B02C01A5241CDD2C3098B4201D3CB01C01A52418309ED
:402280008B4201D38B01C01A524143098B4201D34B01C01A524103098B4201D30B01C01A5241C3088B4201D3CB00C01A524183088B4201D38B00C01A524143088B4201D304
:4022C0004B00C01A5241411A00D20146524110467047FFE701B5002000F00CF802BDC0460029F7D003B5FFF775FF0EBC4243891A1847C0467047C046F0B54F4646460504A8
:402300002D0C2C1CC0B41704160C3F0C9946030C7C4375435F4373437D19260CAD199C46AF4203D980235B029846C4444B465143434324042E0C240C2D0466442C19591872
:402340008919201C0CBC90469946F0BD38B500220C4B041C0D1C01F097FC002804D1201C291C01F011FB38BD064B0022201C291C00F090FF01F008FB80231B069C46604401
:40238000F1E7C0460000E041F0B556464D465F464446F0B443024500C70F83B08A465C0A2E0EB94641D0FF2E26D080231B042343DC00002398469B467F3E53465B025D0A3F
:4023C00053465A00DB0F120E9A4639D0FF2A33D080231B042B43DD0000237F3A5146B21A46467940081C01921E430F2E00D976E07E4AB6009659B746002C30D10823984616
:40240000063B9B46D9E780230021DB03FF245B02E4055B0AC90723430B43181C03B03CBC90469946A246AB46F0BD002C28D104239846033B9B46C0E7002D1FD1022302E098
:40244000002D11D10123B21A50464646784001921E430F2E27D86649B60089598F460C239846093B9B46A8E7281C01F017FC7622431F52429D40121A0023AFE70323ADE724
:40248000201C01F00BFC431F9C4076235B421E1A002398469B4690E70025D1469B465B464846022B6FD10121FF2401400023AEE77E23019A5B429B1A1B2B6DDD01214B461B
:4024C000194000240023A2E78023DB031C4249D18023DB0323435B025B0A391C96E763016D01AB4237D389461A2001215B1B01241E1C49005B00002E01DBAB4201D35B1B91
:40250000214301380028F3D1581E83410B431D1C019C7F34002CCBDD6B0704D00F232B40042B00D004352B0104D5019A314B8032141C1D40FE2C07DD4B460121FF2419407A
:40254000002364E7251CAAE701214A46AB015B0AE4B211405BE7019A8946013A01921B200021C4E71D4207D023435B025B0A391C4CE700256302ABD58023DB032B435B02B4
:402580005B0A514642E7032B25D0012BC0D101210024014000233AE7291CD9402B1C019A9E3293405D1EAB410B435A0704D00F221A40042A00D004335A0105D54B460121D6
:4025C00001241940002322E701214A469B015B0A114000241BE7802301214A46DB032B435B020A405B0A111C10E7C046A0400000E0400000FFFFFFF770B5041E39D0C50F18
:4026000000D04442201C01F049FB9E23261C1B1A962B07DC082801DD083884406402640AD8B21EE0992B0ADD0522211C121AD1400A1C011C1B318E40711E8E4116430528FC
:4026400001DD421F96400F4C3440720704D00F221640042E00D0043462010ED4A401640AD8B26402C005640AED0704432C43201C70BD002500200024F3E7024B1C409F232C
:402680001B1AEBE7FFFFFFFB10B5041E35D001F005FB9E21091A962909DC082830DD021C231C083A93405B025B0AC8B220E099290CDD0522231C121AD3401A1C031C1B33DA
:4026C0009C40231C5C1EA34113431C1C052801DD431F9C400F4B2340620704D00F221440042C00D004335A010ED49B015B0AC8B25B025B0AC005184310BD00200023F7E74C
:4027000063025B0AC8B2F3E79F21024A091A1340EBE7C046FFFFFFFBF0B55F4656464D464446F0B40F0387B098464D003B0BCC0F061C924681469B466D0D01946BD0664B50
:402740009D4235D080275B467F031F43F3009946624BFF00400F9C4607430023BB46002665440093424617035000D20F53463F0B400D904600D172E0574A904267D0802381
:402780005B031F435346554A5B0FFF001F43944653460021DB0060444246624092462D1A0E430F2E00D9A1E04D48B600805987465B461E4300D076E000239B4699460233E1
:4027C00008260093CEE799464346BB4601930091009B022B6BD1019B9A46002153460122002789461A403C4B00213F030C0D24053F0B27433B4C1B0527401F437F00D20780
:402800007F0817434846391C07B03CBC90469946A246AB46F0BD03433ED05B46002B00D19CE1584601F03AFA2823311C1B1A021C5F46D940083A97400B1C96403B439B469B
:40284000B1460023284D00262D1A00938AE7524603213A43A0D10027002302219CE752463A4315D0002F00D185E1381C01F016FA021C28215046891A131CC8405146083B58
:4028800099409F400B1C074317480021801A83E70027002301217FE700239B4699460133042600935EE703230C2600935AE7032B00D13CE2012B00D0BFE11A1C019B1A406F
:4028C00000210023002789468EE700238027994600223F03004B87E7FF07000001FCFFFF20410000FFFF0F800DFCFFFFBB4500D951E100D14CE14A46039200225C469046A5
:40290000013D180E3F0238431B020193030C994603041B0C4946061C201C1F1C0093FFF759FC021C7A4302904946201C171CFFF7D7FC039B09041B0C19438F420CD9029BEF
:402940008919013B8E4200D952E18F4200D84FE1029B8919023B0293CC1B201C4946FFF739FC009F834647434946201CFFF7B8FC039A0B041404240C23439F420DD95A46AE
:402980009B19013A9E4200D930E19F4200D82DE10222524294469B19E344029ADB1B17045A463A439346019C170C220C101C04925A4611042204120C141C090C7C43059243
:4029C0004A43414347436118100C09188C4203D980204002844667440C0C12040804120C3C198118A34200D2E5E000D1DFE01F1B43465C1AA04592415242BF1AB74200D10B
:402A00000EE1381C4946FFF7E5FB009B029043434946381C9846FFF763FC230C0F041F43B8450CD9029BBF19013BBE4200D9FBE0B84500D8F8E0029BBF19023B02934346BD
:402A4000FF1A4946381CFFF7C5FB009B039043434946381C9846FFF743FC24040904240C214388450CD9039B8919013B8E4200D9DCE0884500D8D9E0039B8919023B03932D
:402A80004346C91A029B039A1B04059C1A43100C13049146221C049F1B0C5A4344437B437843E318170CDB199C4203D980246402A44660441C0C12041B04120C00199B18F9
:402AC000814200D296E000D1FCE04A4601231A4391469B4BEB18002B00DC99E04A4652070AD00F2249460A40042A05D00431494592418946524293445A46D20106D55A463F
:402B0000904B1A4080239346DB00EB188E4A934200DD62E64A465946D208490711435A4689465702514601225B053F0B5B0D0A405AE680205A460003024208D0074206D1EA
:402B400007433F0399463F0B4246804B4CE65F4607433F033F0B221C7C4B45E601F09EF8031C2030272800DC5EE6083B9E400023B346994665E6504601F090F8021C203225
:402B8000272A00DC75E657460838874000237BE6994500D2AFE65A46594654084A46C8075208024303924A46D2079046A9E60027884500D31CE7019F5A46BC46E044B845F7
:402BC000BF417F42BF19FF18013ABE4206D2BC425FD800D19FE03F1B934609E7B742FAD1019B4345F3D9371B934601E79346D4E60293B1E64A468919013A8E4218D99146DF
:402C0000814200D061E7019A9A4200D05DE760E74F4F7F1B382F13DD012253461A404FE601235B42994654E7029308E7039327E788423CD874D0914647E7019B9A4648E738
:402C40001F2F44DC434B4A469C465B466544FA40AB4013434A46AA40151C6A1E95415A46FA402B43171C5A0709D00F221A40042A05D01A1D9A429B415B42FF18131C3A02C7
:402C80003ED55346012200211A40002701238946AAE502235B429C46019AE3449446E04490459B415B429B19DF193F1BA0E6019F4A467C00BC42BF417F42BF19023AC91982
:402CC00001949CE7002B95D1002201929BE75A46214B5B1BDA40202F27D0204B9C465B466544AB4049460B43591E8B411343072200271A4007D00F2200271A40042AB8D130
:402D00007A077F023F0BDB0813439946012253461A40002368E54145BBD89346002767E6019C9C42C3D391466DE70023DAE780275B463F031F433F033F0B019A034B53E58A
:402D4000FF030000FFFFFFFEFE070000FF07000002FCFFFF1E040000E2FBFFFF3E040000F0B55F4656464D464446F0B4051C061C080387B099464F00030BCC0F92469B4614
:402D80007F0D019467D06C4B9F4236D080205B4640031843C0006B0F1843684B83469C4600239846EE00674400934B4649461D03C90F5B0052462D0B5B0D894600D16EE085
:402DC0005D498B4264D080205C4940038C4600210543ED00500F0543D20063444846FF187B1C9A46009B604002900B430F2B00D9ACE053489B00C3589F465B461D4300D07F
:402E000082E00823009300239B46023300269846CBE7029B01934346022B59D1012400250026019B1C40444B00212D030A0D12052D0B1543434A1B0515401D436D00E407B2
:402E40006D082543301C291C07B03CBC90469946A246AB46F0BD2B434ED05B46002B00D185E1584600F01AFF021C2823291C9B1A161C5846D940083EB0400B1CB5400343E0
:402E80009B462E1C0023304F0093BF1A98468CE7514629432ED10025002202219EE75146294323D0002D00D154E1281C00F0F6FE031C28215046C91A1A1CC8405146083A4E
:402EC000914095400A1C05431F480021C31A85E7032B00D1C2E1012B00D06DE14446019B00251C40E4B2002300269DE700250022012173E7032171E70423009300239B46FA
:402F000001330026984650E70C230093093B98464BE7802500242D030026074B84E74B46AB46161C0193884675E7029BAB46161C019388466FE7C046FF07000001FCFFFF3F
:402F400060410000FFFF0F800DFCFFFF330C3604360C9C46331C140C1204120C53439846634653439946634663430193331C41466343090C4B445B18994505D98020400236
:402F80008146019949440191190C039141460904090C1B045B1804932B0C9846331C2D04290C4B43604600934346654658435E43009B4D431B0C9946AE194E448446B542BA
:402FC00003D980235B029946CC44350C2B1C0398634484460593009B36041B041B0CF3189C446046039058460504060C280C84465043351C81466046654344434846000CCA
:403000008346724314195C44A24203D98022520293465D44220CAD184A461204120C24044046A41862464A437143464360460096464670438046100C84468844E0444145E5
:4030400005D9802149028C46009961440091019803998446614499429B415B4299460598434684461204120C1B049B1863449C46AB4683429B4140460A19CC44A242894196
:40308000E344CC45B6415C46000C8046494276425B426418334398448C428941AB459B4149425B4219430D1C009B4544EE187602E50D2E43B346049B56021E43731E9E41E8
:4030C0005B46D20D324366021643DB010AD50123334076081E435B46DB071E435B465B089B465746634BFB18002B5ADD720709D00F223240042A05D0321DB242B641764276
:40310000B344161C5A46D20106D55A465A4B1A4080239346DB00FB18584A934234DD0124029B00251C400026554B7DE680205B460003034208D0054206D105432D032D0BEC
:403140004C46161C4E4B6FE65D4605432D032D0B4B4B69E6504600F0A1FD031C2033272B00DCA6E65546083885400022ACE6281C00F094FD021C2032272A00DC75E60838C4
:4031800085400026AB467DE65A46F608520716435A4601245502029A5B052D0B5B0D144042E6384DED1B382D0ADD0124029B00251C400026002337E6019B5746029391E784
:4031C0001F2D25DC304B321C9C466744BE405B46BB40371CEA407E1EB74113433B431E1C5B46EB401D1C730709D00F233340042B05D0331DB342B6417642AD191E1C2B0251
:4032000020D50124029B00251C40002601230BE65A461E4BDB1BDA40131C202D1CD01C4A94465A466744BA40171C3E43721E96411E4307230025334007D00F230025334036
:40324000042BD6D16B076D022D0B0124F6081E43029B1C400023E7E50027E6E780255B4601242D031D43019B2D0323401C1C2D0B034BD9E5FF030000FFFFFFFEFE07000057
:40328000FF07000002FCFFFF1E040000E2FBFFFF3E040000F0B54D4644465F465646F0B40E1C111C3203520A470F1743C5001A035800DB0F9946520A4B0F83B01A43CB007A
:4032C0000193CF4B7400F60F640DB046400D984200D1E8E00123494659400B1C9E4200D1B1E0261A002E00DC1CE1002842D1131C01990B4300D0E6E06B0700D18EE00F23B9
:403300002B40042B00D189E02A1DAA42AD418023012641466D427F191B043B400E40151C002B00D183E0B64B01349C4200D116E13A1CB44BED081A405007640552020543AC
:40334000120B640D002112030B0D1B056405120B1A436308AC4CF60714401C43640064083443281C211C03B03CBC90469946A246AB46F0BDA24B9C42BED080231B041A4335
:40338000382E00DD03E11F2E00DD3FE12020831B9946131C49468B409C46019B6046F34003430198F2408840011C481E81410B43EB1A9D4280411D1CBA1A4042171A3B02F1
:4033C00000D4A8E07A02560A002E00D1CAE0301C00F064FC031C083B1F2B00DDCBE02822291C121AD1409E400A1C9D4032439C4200DDC8E01C1B671C1F2F00DDEDE01F23A3
:40340000291C1C1B131CA540A340F9406C1EA541FA4019430D43171C00246DE78023012642461B043B401640002B00D07BE7744BED0878070543FA089C423BD0120364055C
:40344000120B640D7EE7231A9A46002B00DCA5E0002844D06A48844200D14DE78020000402435346382B00DC1CE1019B1A43511E8A41D1B200224919A94280410D1CD2193F
:40348000404217183B0246D55D4B01349C4200D169E101205B4A6B083A4028401843D5070543570828E7131C01990B4300D111E74B4613E72B1C134351D080231B031A43DE
:4034C0001203120B3EE7013E002E00D080E0691A8D429B41BA1A5B42D71A0D1C6FE7101C019B184300D107E701235B429C46E2445346002B00D002E1019BD2195919A942C3
:403500009B415B42D7180D1CBCE76346034300D128E1071C65466B0700D0F0E6012643461E4084E7002E00D081E0601C4005400D012800DC07E10199681A84466545B6414E
:40354000B81A7642861B300200D4A1E08C464D1BAC458941D21B4942561A984634E700220025EFE6281C00F099FB2030031C083B1F2B00DC33E7021C283A95402A1C00252D
:403580009C4200DC36E71F4FE41A1740B4E6019B1A43511E8A41D3B2002209E7002B00D001E1601C43055B0D012B00DCB0E0144B984200D11EE1019BD2195919A9429B41A3
:4035C0005B42D2184908D5070D435708041C93E60B4B9C4200D0D3E68EE6211C131C1F39CB40191C202F00D18EE03F231C1BA24015436A1E954100270D4300248BE7C046C8
:40360000FF070000FFFF7FFFFFFF0F80331C101C203BD840202E79D040239B1B9A40131C019A1343591E8B4100220343C0E6002C53D0C74CA04200D1B0E0802471428946C7
:40364000240427434946382900DDCDE01F2900DD59E120243E1C611A8E408A46B04649462E1CCE405146B4468D4064464646494626436C1EA541CF4035430199D71B8C466A
:403680004D1BAC4592415242BF1A041C984696E663466546334300D096E60026002700240025C4E61F2B61DC2020C31A9B46131C59468B4051469946019BCB409C464B46F3
:4036C000604603439C465B46019999406346481E814119435346DA40CDE63C1C2C435DD0F1438946002955D10199D21B8C464D1BAC4589414942571A041C98465FE6944878
:40370000844200D0ADE6F7E5002271E7002387E73B1C2B43002C00D0DAE0002B00D113E1131C01990B4300D1E6E54919A9429B41D2195B42D7183B0200D421E1854B0D1CAF
:403740001F40041CD8E5381C2843002C40D1002800D083E0101C0199084303D0171C0D1C9846C9E500260027002560E65046131C2038C340181C5346202B00D1C1E0402325
:4037800051465B1A9A40019911434A1E91410022014370E66E4CA04200D053E7171C019D041C9846A8E5002C28D13C1C2C4300D18AE0DB439A46002B00D082E0019BD21934
:4037C0009C4665449D42894149425718041C59E600285BD1101C0199084300D1A4E0171C0D1C98465A4C87E53D436F1EBD410027EDB242E7041C0027002518E6544CA04250
:4038000062D0534680245B429A46240427435346382B00DD8EE01F2B00DD9DE02024E31A9B463B1C59468B40514699462B1CCB409C464B46644623439C465B469D406346E8
:403840006C1EA541CF401D43019BBF189C4665449D4292415242BF18041C13E6101C0199084300D148E5681A844685428041BE1A4042301A060200D447E68C464D1BAC457A
:403880008941D21B4942571A984635E5101C0199084334D080247807ED08FF0824032843274208D0D608264205D1C90852070A43101C371C9846FF00420F1743C500244C87
:4038C0001AE5234CA042A2D1171C019D041C13E5002B35D0131C01990B4310D080247807ED08FF08240328432742E4D0D3082342E1D1C90852070A43101C1F1CDBE7144C35
:40390000FAE400223FE74C463E1C203CE6404946341C202932D04026761AB7403D436F1EBD4100272543A8E680270026FF03084C00257CE53D436F1EBD410027EDB283E7D0
:40394000171C019D024CD7E4171C019DD4E4C046FF070000FFFF7FFF54463B1C203CE3401C1C5346202B0DD0402351465B1A9F403D436F1EBD410027254365E70027CDE7E4
:403980000D1CC8E50027F3E70B0330B5134C1A0B4B00051C5B0DC90F0020A34210DD104883420EDC80200F4C40030243E41A1F2C0ADD0D48C31ADA40131C48424340581869
:4039C00030BD0A4BC818FBE7281CE040084CA44663449A40131C0343EFE7C046FE0300001D0400003304000013040000FFFFFF7FEDFBFFFF10B5041E10D000F04FF9144A20
:403A0000121A0A281ADC0B23211C1B1AD94015300B03520584401B0B520D01E00022002300211B03201C1C0B0B0D1B052343094C1205234013435B00590810BD031C0B3B0D
:403A40009C40520523031B0B520D0024E8E7C0461E040000FFFF0F804200120E511C38B5C9B243025D0AC40F012915DDE02189008C466D071B0B62440021281C0D0D2D05A1
:403A80002B431C4D52052B40520813435B00E4075B082343191C38BD002A15D1002D1FD0281C00F0FBF80A281DDC0B232A1C1B1ADA40131C021C153295400F4A1B03121A37
:403AC00052051B0B520DD7E7002D06D080221B0B120313436D07094ACEE7084A0023CBE700220023C8E7031C0B3B9D402B1C0025E3E7C046FFFF0F8089030000FF070000C2
:403B000070B50B034D00440F6D0D5B0A23436C1C6405C90FC200640D012C2ADD3B4C2C19FE2C1ADC002C35DD8001451EA841DB000343520F13435A0704D00F221A40042A80
:403B400000D004338022D2041A4027D00134FF2C03D09B015B0AE4B201E0FF2400235B02E4055B0A23435B00C9075B080B43181C70BD002D06D113430ED100245B025B0A17
:403B8000E4B2ECE71A43E8D08020DB0080040343FF24D0E717340CDA05230024DB08FF2CECD1002B2DD08022D20313435B025B0AD5E78024164824042343401B1F280DDC92
:403BC000144CA4466544AB401C1C131CAB405D1EAB41C240234313430024ACE71E1C0E4C641BE640341C20280DD00C4884466544AB401D1C2A43531E9A41131C23430024AE
:403C000099E70023ABE70025F4E7C04680FCFFFF9E03000082FCFFFF7E030000A2FCFFFF8446101C62468C46191C634600E0C0461FB500F005F9002801D40021C8421FBD9B
:403C400010B500F049F84042013010BD10B500F0F7F8002801DB002010BD012010BDC04610B500F0EDF8002801DD002010BD012010BDC04610B500F073F8002801DC00207F
:403C800010BD012010BDC04610B500F069F8002801DA002010BD012010BDC0461C2101231B04984201D3000C10391B0A984201D3000A08391B09984201D30009043902A2EC
:403CC000105C40187047C04604030202010101010000000000000000F0B55F464D4644465646F0B41F035C00DB0F99461B4B0E034D00C90F8446360B6D0D8B4690463F0B34
:403D0000640D9D420CD0154B9C4210D00123A54214D0181C3CBC90469946A246AB46F0BD311C01230143F4D10C4B9C42EED13A430123002AEDD10123A542EAD1BE42E8D16D
:403D4000C445E6D1CB4506D0002DE2D13043031C581E8341DDE70023DBE7C046FF070000F0B5574645464E46E0B40F034E00C90F8A4632491D035C0084463F0B760D9046DB
:403D80002D0B640DDB0F8E420FD08C4239D0002E10D13843414241418946002C27D12A4325D1002000290ED108E0391C01432ED1B44226D0002C0BD09A450DD0534659427A
:403DC00001231943081C1CBC90469946A246F0BD2A43F3D09A45F1D1A642EFDC1ADA504641424841012341421943081CEBE74A46002AE1D058425841012241421143081C2E
:403E0000E1E7291C114302D1002EC2D0D4E702204042D8E7AF42D1D809D00020AF42D2D2504641424841012340421843CBE7C445C4D80020C445F3D3C5E7C046FF070000A7
:403E4000F0B55F464D46444656468046F0B4061C0803000B84462C484C001F035D00C90F640D8B4691463F0B6D0DDB0F844212D0854225D0002C14D161460E43704246414F
:403E8000002D35D0002E21D058425841012143420B43181C0EE06146022031430AD1A5420ED0002D12D13A4310D15B46594201231943081C3CBC90469946A246AB46F0BD09
:403EC000391C02201143F5D1002CD5D09B45ECD1AC42EADC05DBBC45E7D80FD00020BC45E8D2584641424841414201200843E1E73A43C7D10020002EDCD1D6E7C845D4D8CE
:403F00000020C845EDD3D5E7FF070000014B18687047C046980100200E4B70B500251E1C0D4CE41AA410A54204D0AB00F35898470135F8E700F036F9084B00251E1C084CDE
:403F4000E41AA410A54204D0AB00F35898470135F8E770BDB0410000B0410000B0410000B8410000002310B5934203D0CC5CC4540133F9E710BD031C8218934202D0197057
:403F80000133FAE77047000000000000320300004C030000680300007C040000AA040000560900007409000086090000BE0900007A0A00008C0A0000A40A0000020B000011
:403FC000300B0000420B0000C00B000000300F40000800400F40000804320F4002330F4002350F4002410F4002420F4002450F4002460F40B882BE41D804DF0118801A02C6
:40400000AE01B4405310D420AF10EE403801CE02B401EC08030405060708090A0B0C0E0F101112131415161718191B1C1D1E1F2021222325262728292A2B2E2F3031323360
:4040400034350000EEDBC9B9AA9B8E82766B60564D443B332C241D17100A0400F68CFCFC544B430FD1549E0229E7F4000BF03B0003C16A0012FCE7FFEBE77C003842C4FFE8
:4040800020DEA902E3FDB4F67ED3190C0201000002010000020100000001000006040200DE240000A6240000C22400009A240000C224000006240000C22400009A2400001D
:4040C000A6240000A6240000062400009A240000442500004425000044250000C8240000A6240000A62400008E250000982400008E250000062400008E25000098240000CE
:40410000A6240000A6240000062400009824000044250000442500004425000072250000EC280000DA270000C0280000C6270000C0280000CA280000C0280000C62700009A
:40414000DA270000DA270000CA280000C6270000D0270000D0270000D0270000322B00004C2F00002A2F00002A2F00001E2F0000122E0000122E0000122F00001E2F000094
:40418000122E0000122F0000122E00001E2F0000162E0000162E0000162E00002C31000043000000F8B5C046F8BC08BC9E467047BD020000310E0000F8B5C046F8BC08BC96
:4041C0009E46704795020000D8410000C8000020D80000007001000000000000030200010002005300000000000000000000000000000000000000000000000000000000E8
:404200000000000000000000000000000000000000000000000000000000000000000000000000000000000000000000000000000000000000366E01C05D000018000000A4
:404240000000E02E010000000000000000000000000000000000000000000000000000000000000000000000A041000000000000000000000000000000000000000000004E
:4042800000000000000000000000000000000000000000000000000000000000000000000000000000000000380100200000000000000000000000000000000000000000A5
:4042C00000000000000000000000000000000000000000000000000000000000000000000000000000000000000000000000000000000000000000000000000000000000BE
:40430000000000000000000000000000000000000000000000000000000000000000000000000000000000000000000000000000000000000000000000000000000000007D
:40434000000000000000000000000000000000000000000000000000000000000000000000000000000000000000000000000000000000000000000000000000000000003D
:4043800000000000000000000000000000000000000000000000000000000000000000000000000000000000000000000000000000000000000000000000000000000000FD
:020000040003F7
:0200000490303A
:0200000099E97C
:0200000490402A
:4000000000000000000000000000000000000000000000000000000000000000000000000000000000000000000000000000000000000000000000000000000000000000C0
:400040000000000000000000000000000000000000000000000000000000000000000000000000000000000000000000000000000000000000000000000000000000000080
:0200000490501A
:0C0000000002101311A000011028AB89B1
:0200000490600A
:0100000001FE
:00000001FF